011000015O0110000150122415000000000FEDERAL RESERVE BANK                1000 PEACHTREE ST N.E.              ATLANTA             GA303094470877372245711     
011000028O0110000151072811000000000STATE STREET BANK AND TRUST COMPANY JAB2NW                              N. QUINCY           MA021710000617664240011     
011000138O0110000151101310000000000BANK OF AMERICA, N.A.               8001 VILLA PARK DRIVE               HENRICO             VA232280000800446013511     
011000206O0110000151072505000000000BANK OF AMERICA N.A                 PO BOX 27025                        RICHMOND            VA232617025800446013511     
011000390O0110000151072505000000000BANK OF AMERICA N.A                 PO BOX 27025                        RICHMOND            VA232617025800446013511     
